{
  "_format": "hh-sol-artifact-1",
  "contractName": "Ethablish",
  "sourceName": "contracts/Ethablish.sol",
  "abi": [
    {
      "inputs": [
        {
          "internalType": "address",
          "name": "_trustedForwarder",
          "type": "address"
        }
      ],
      "stateMutability": "nonpayable",
      "type": "constructor"
    },
    {
      "inputs": [
        {
          "internalType": "address",
          "name": "have",
          "type": "address"
        },
        {
          "internalType": "address",
          "name": "want",
          "type": "address"
        }
      ],
      "name": "OnlyCoordinatorCanFulfill",
      "type": "error"
    },
    {
      "anonymous": false,
      "inputs": [
        {
          "indexed": true,
          "internalType": "uint256",
          "name": "requestId",
          "type": "uint256"
        }
      ],
      "name": "RequestedVRFKey",
      "type": "event"
    },
    {
      "anonymous": false,
      "inputs": [
        {
          "indexed": true,
          "internalType": "uint256",
          "name": "vrfKey",
          "type": "uint256"
        },
        {
          "indexed": false,
          "internalType": "bytes32",
          "name": "emailHash",
          "type": "bytes32"
        }
      ],
      "name": "VRFKeyGenerated",
      "type": "event"
    },
    {
      "inputs": [
        {
          "internalType": "uint256",
          "name": "licKey",
          "type": "uint256"
        },
        {
          "internalType": "string",
          "name": "_email",
          "type": "string"
        }
      ],
      "name": "CreateEmailProfile",
      "outputs": [],
      "stateMutability": "nonpayable",
      "type": "function"
    },
    {
      "inputs": [
        {
          "internalType": "string",
          "name": "_email",
          "type": "string"
        }
      ],
      "name": "SendFundViaEmailProfileCall",
      "outputs": [
        {
          "internalType": "bool",
          "name": "",
          "type": "bool"
        }
      ],
      "stateMutability": "payable",
      "type": "function"
    },
    {
      "inputs": [],
      "name": "emailProfileCount",
      "outputs": [
        {
          "internalType": "uint256",
          "name": "",
          "type": "uint256"
        }
      ],
      "stateMutability": "view",
      "type": "function"
    },
    {
      "inputs": [
        {
          "internalType": "string",
          "name": "_email",
          "type": "string"
        }
      ],
      "name": "getVRFLicenseKey",
      "outputs": [],
      "stateMutability": "nonpayable",
      "type": "function"
    },
    {
      "inputs": [
        {
          "internalType": "address",
          "name": "forwarder",
          "type": "address"
        }
      ],
      "name": "isTrustedForwarder",
      "outputs": [
        {
          "internalType": "bool",
          "name": "",
          "type": "bool"
        }
      ],
      "stateMutability": "view",
      "type": "function"
    },
    {
      "inputs": [],
      "name": "licenseKeyCount",
      "outputs": [
        {
          "internalType": "uint256",
          "name": "",
          "type": "uint256"
        }
      ],
      "stateMutability": "view",
      "type": "function"
    },
    {
      "inputs": [
        {
          "internalType": "uint256",
          "name": "requestId",
          "type": "uint256"
        },
        {
          "internalType": "uint256[]",
          "name": "randomWords",
          "type": "uint256[]"
        }
      ],
      "name": "rawFulfillRandomWords",
      "outputs": [],
      "stateMutability": "nonpayable",
      "type": "function"
    },
    {
      "inputs": [
        {
          "internalType": "address",
          "name": "_trustedForwarder",
          "type": "address"
        }
      ],
      "name": "setTrustForwarder",
      "outputs": [],
      "stateMutability": "nonpayable",
      "type": "function"
    },
    {
      "inputs": [],
      "name": "trustedForwarder",
      "outputs": [
        {
          "internalType": "address",
          "name": "",
          "type": "address"
        }
      ],
      "stateMutability": "view",
      "type": "function"
    },
    {
      "inputs": [
        {
          "internalType": "string",
          "name": "_email",
          "type": "string"
        },
        {
          "internalType": "address",
          "name": "_accountAddress",
          "type": "address"
        }
      ],
      "name": "verifyEmailProfile",
      "outputs": [
        {
          "internalType": "bool",
          "name": "",
          "type": "bool"
        }
      ],
      "stateMutability": "view",
      "type": "function"
    },
    {
      "inputs": [],
      "name": "versionRecipient",
      "outputs": [
        {
          "internalType": "string",
          "name": "",
          "type": "string"
        }
      ],
      "stateMutability": "pure",
      "type": "function"
    }
  ],
  "bytecode": "0x610120604052737a1bac17ccc5b313516c5e16fb24f7659aa5ebed600160006101000a81548173ffffffffffffffffffffffffffffffffffffffff021916908373ffffffffffffffffffffffffffffffffffffffff16021790555073326c977e6efc84e512bb9c30f76e30c160ed06fb600260006101000a81548173ffffffffffffffffffffffffffffffffffffffff021916908373ffffffffffffffffffffffffffffffffffffffff1602179055507f4b09e658ed251bcafeebbc69400383d49f344ace09b9576fe248bb02c003fe9f60001b600355620186a0600460006101000a81548163ffffffff021916908363ffffffff1602179055506101386004806101000a81548167ffffffffffffffff021916908367ffffffffffffffff16021790555061016d600c553480156200013757600080fd5b5060405162001aa438038062001aa483398181016040528101906200015d91906200032b565b600160009054906101000a900473ffffffffffffffffffffffffffffffffffffffff168073ffffffffffffffffffffffffffffffffffffffff1660808173ffffffffffffffffffffffffffffffffffffffff1660601b8152505050620001c981620002d160201b60201c565b600160009054906101000a900473ffffffffffffffffffffffffffffffffffffffff1673ffffffffffffffffffffffffffffffffffffffff1660a08173ffffffffffffffffffffffffffffffffffffffff1660601b8152505060035460e0818152505060048054906101000a900467ffffffffffffffff1667ffffffffffffffff1660c08167ffffffffffffffff1660c01b81525050600460009054906101000a900463ffffffff1663ffffffff166101008163ffffffff1660e01b8152505033600660006101000a81548173ffffffffffffffffffffffffffffffffffffffff021916908373ffffffffffffffffffffffffffffffffffffffff16021790555050620003b0565b806000806101000a81548173ffffffffffffffffffffffffffffffffffffffff021916908373ffffffffffffffffffffffffffffffffffffffff16021790555050565b600081519050620003258162000396565b92915050565b60006020828403121562000344576200034362000391565b5b6000620003548482850162000314565b91505092915050565b60006200036a8262000371565b9050919050565b600073ffffffffffffffffffffffffffffffffffffffff82169050919050565b600080fd5b620003a1816200035d565b8114620003ad57600080fd5b50565b60805160601c60a05160601c60c05160c01c60e0516101005160e01c61169c6200040860003960006106e20152600061069e015260006106bf0152600061066201526000818161029d01526102f1015261169c6000f3fe60806040526004361061009c5760003560e01c8063572b6c0511610064578063572b6c051461018d5780636f5d4013146101ca5780637da0a877146101f3578063914fca461461021e578063ddf0b3da14610247578063e1f87d9c146102705761009c565b80631fe543e3146100a157806328acebab146100ca5780632ee56705146100fa57806334564b9b14610137578063486ff0cd14610162575b600080fd5b3480156100ad57600080fd5b506100c860048036038101906100c39190610f30565b61029b565b005b6100e460048036038101906100df9190610e5e565b61035b565b6040516100f1919061116f565b60405180910390f35b34801561010657600080fd5b50610121600480360381019061011c9190610ea7565b6104e4565b60405161012e919061116f565b60405180910390f35b34801561014357600080fd5b5061014c6105c2565b604051610159919061127a565b60405180910390f35b34801561016e57600080fd5b506101776105c8565b60405161018491906111f8565b60405180910390f35b34801561019957600080fd5b506101b460048036038101906101af9190610e31565b610605565b6040516101c1919061116f565b60405180910390f35b3480156101d657600080fd5b506101f160048036038101906101ec9190610e5e565b61065e565b005b3480156101ff57600080fd5b506102086108cb565b604051610215919061112b565b60405180910390f35b34801561022a57600080fd5b5061024560048036038101906102409190610f8c565b6108f4565b005b34801561025357600080fd5b5061026e60048036038101906102699190610e31565b610b55565b005b34801561027c57600080fd5b50610285610bbb565b604051610292919061127a565b60405180910390f35b7f000000000000000000000000000000000000000000000000000000000000000073ffffffffffffffffffffffffffffffffffffffff163373ffffffffffffffffffffffffffffffffffffffff161461034d57337f00000000000000000000000000000000000000000000000000000000000000006040517f1cf993f4000000000000000000000000000000000000000000000000000000008152600401610344929190611146565b60405180910390fd5b6103578282610bc1565b5050565b600080828051906020012090506002600381111561037c5761037b611503565b5b6009600083815260200190815260200160002060030160009054906101000a900460ff1660038111156103b2576103b1611503565b5b146103f2576040517f08c379a00000000000000000000000000000000000000000000000000000000081526004016103e99061123a565b60405180910390fd5b60006009600083815260200190815260200160002060010160009054906101000a900473ffffffffffffffffffffffffffffffffffffffff16905060008173ffffffffffffffffffffffffffffffffffffffff163460405161045390611116565b60006040518083038185875af1925050503d8060008114610490576040519150601f19603f3d011682016040523d82523d6000602084013e610495565b606091505b50509050806104d9576040517f08c379a00000000000000000000000000000000000000000000000000000000081526004016104d09061121a565b60405180910390fd5b809350505050919050565b600080600090506000848051906020012090508373ffffffffffffffffffffffffffffffffffffffff166009600083815260200190815260200160002060010160009054906101000a900473ffffffffffffffffffffffffffffffffffffffff1673ffffffffffffffffffffffffffffffffffffffff1614156105b7576002600381111561057557610574611503565b5b6009600083815260200190815260200160002060030160009054906101000a900460ff1660038111156105ab576105aa611503565b5b14156105b657600191505b5b819250505092915050565b600a5481565b60606040518060400160405280600181526020017f3100000000000000000000000000000000000000000000000000000000000000815250905090565b60008060009054906101000a900473ffffffffffffffffffffffffffffffffffffffff1673ffffffffffffffffffffffffffffffffffffffff168273ffffffffffffffffffffffffffffffffffffffff16149050919050565b60007f000000000000000000000000000000000000000000000000000000000000000073ffffffffffffffffffffffffffffffffffffffff16635d3b1d307f00000000000000000000000000000000000000000000000000000000000000007f000000000000000000000000000000000000000000000000000000000000000060037f000000000000000000000000000000000000000000000000000000000000000060016040518663ffffffff1660e01b81526004016107239594939291906111a5565b602060405180830381600087803b15801561073d57600080fd5b505af1158015610751573d6000803e3d6000fd5b505050506040513d601f19601f820116820180604052508101906107759190610f03565b90506000828051906020012090506040518060a00160405280828152602001600073ffffffffffffffffffffffffffffffffffffffff16815260200160008152602001600160038111156107cc576107cb611503565b5b81526020016000815250600960008381526020019081526020016000206000820151816000015560208201518160010160006101000a81548173ffffffffffffffffffffffffffffffffffffffff021916908373ffffffffffffffffffffffffffffffffffffffff1602179055506040820151816002015560608201518160030160006101000a81548160ff0219169083600381111561086f5761086e611503565b5b021790555060808201518160040155905050806007600084815260200190815260200160002081905550817fc8b9ddb86644ce85ae28b19d9faa6c81a0d5fe729c265141e30b9911410c7c6760405160405180910390a2505050565b60008060009054906101000a900473ffffffffffffffffffffffffffffffffffffffff16905090565b60008180519060200120905082600960008381526020019081526020016000206002015414610958576040517f08c379a000000000000000000000000000000000000000000000000000000000815260040161094f9061125a565b60405180910390fd5b6000610962610c6a565b9050806009600084815260200190815260200160002060010160006101000a81548173ffffffffffffffffffffffffffffffffffffffff021916908373ffffffffffffffffffffffffffffffffffffffff16021790555060026009600084815260200190815260200160002060030160006101000a81548160ff021916908360038111156109f3576109f2611503565b5b0217905550600c5442610a06919061133e565b600960008481526020019081526020016000206004018190555060096000838152602001908152602001600020600860008373ffffffffffffffffffffffffffffffffffffffff1673ffffffffffffffffffffffffffffffffffffffff168152602001908152602001600020600082015481600001556001820160009054906101000a900473ffffffffffffffffffffffffffffffffffffffff168160010160006101000a81548173ffffffffffffffffffffffffffffffffffffffff021916908373ffffffffffffffffffffffffffffffffffffffff160217905550600282015481600201556003820160009054906101000a900460ff168160030160006101000a81548160ff02191690836003811115610b2557610b24611503565b5b021790555060048201548160040155905050600b6000815480929190610b4a9061148b565b919050555050505050565b600660009054906101000a900473ffffffffffffffffffffffffffffffffffffffff1673ffffffffffffffffffffffffffffffffffffffff163373ffffffffffffffffffffffffffffffffffffffff1614610baf57600080fd5b610bb881610ca1565b50565b600b5481565b600081600081518110610bd757610bd6611532565b5b60200260200101519050600060076000858152602001908152602001600020549050816009600083815260200190815260200160002060020181905550600a6000815480929190610c279061148b565b9190505550817f46032dbc001d64bc02bb481caec9bcdb9e631e322518754a33171e399aac0ef882604051610c5c919061118a565b60405180910390a250505050565b60006014600036905010158015610c865750610c8533610605565b5b15610c9a57601436033560601c9050610c9e565b3390505b90565b806000806101000a81548173ffffffffffffffffffffffffffffffffffffffff021916908373ffffffffffffffffffffffffffffffffffffffff16021790555050565b6000610cf7610cf2846112ba565b611295565b90508083825260208201905082856020860282011115610d1a57610d19611595565b5b60005b85811015610d4a5781610d308882610e07565b845260208401935060208301925050600181019050610d1d565b5050509392505050565b6000610d67610d62846112e6565b611295565b905082815260208101848484011115610d8357610d8261159a565b5b610d8e848285611418565b509392505050565b600081359050610da581611638565b92915050565b600082601f830112610dc057610dbf611590565b5b8135610dd0848260208601610ce4565b91505092915050565b600082601f830112610dee57610ded611590565b5b8135610dfe848260208601610d54565b91505092915050565b600081359050610e168161164f565b92915050565b600081519050610e2b8161164f565b92915050565b600060208284031215610e4757610e466115a4565b5b6000610e5584828501610d96565b91505092915050565b600060208284031215610e7457610e736115a4565b5b600082013567ffffffffffffffff811115610e9257610e9161159f565b5b610e9e84828501610dd9565b91505092915050565b60008060408385031215610ebe57610ebd6115a4565b5b600083013567ffffffffffffffff811115610edc57610edb61159f565b5b610ee885828601610dd9565b9250506020610ef985828601610d96565b9150509250929050565b600060208284031215610f1957610f186115a4565b5b6000610f2784828501610e1c565b91505092915050565b60008060408385031215610f4757610f466115a4565b5b6000610f5585828601610e07565b925050602083013567ffffffffffffffff811115610f7657610f7561159f565b5b610f8285828601610dab565b9150509250929050565b60008060408385031215610fa357610fa26115a4565b5b6000610fb185828601610e07565b925050602083013567ffffffffffffffff811115610fd257610fd161159f565b5b610fde85828601610dd9565b9150509250929050565b610ff181611394565b82525050565b611000816113a6565b82525050565b61100f816113b2565b82525050565b600061102082611317565b61102a818561132d565b935061103a818560208601611427565b611043816115a9565b840191505092915050565b600061105b60148361132d565b9150611066826115ba565b602082019050919050565b600061107e60198361132d565b9150611089826115e3565b602082019050919050565b60006110a160118361132d565b91506110ac8261160c565b602082019050919050565b60006110c4600083611322565b91506110cf82611635565b600082019050919050565b6110e3816113bc565b82525050565b6110f2816113ea565b82525050565b611101816113f4565b82525050565b61111081611404565b82525050565b6000611121826110b7565b9150819050919050565b60006020820190506111406000830184610fe8565b92915050565b600060408201905061115b6000830185610fe8565b6111686020830184610fe8565b9392505050565b60006020820190506111846000830184610ff7565b92915050565b600060208201905061119f6000830184611006565b92915050565b600060a0820190506111ba6000830188611006565b6111c76020830187611107565b6111d460408301866110da565b6111e160608301856110f8565b6111ee60808301846110f8565b9695505050505050565b600060208201905081810360008301526112128184611015565b905092915050565b600060208201905081810360008301526112338161104e565b9050919050565b6000602082019050818103600083015261125381611071565b9050919050565b6000602082019050818103600083015261127381611094565b9050919050565b600060208201905061128f60008301846110e9565b92915050565b600061129f6112b0565b90506112ab828261145a565b919050565b6000604051905090565b600067ffffffffffffffff8211156112d5576112d4611561565b5b602082029050602081019050919050565b600067ffffffffffffffff82111561130157611300611561565b5b61130a826115a9565b9050602081019050919050565b600081519050919050565b600081905092915050565b600082825260208201905092915050565b6000611349826113ea565b9150611354836113ea565b9250827fffffffffffffffffffffffffffffffffffffffffffffffffffffffffffffffff03821115611389576113886114d4565b5b828201905092915050565b600061139f826113ca565b9050919050565b60008115159050919050565b6000819050919050565b600061ffff82169050919050565b600073ffffffffffffffffffffffffffffffffffffffff82169050919050565b6000819050919050565b600063ffffffff82169050919050565b600067ffffffffffffffff82169050919050565b82818337600083830152505050565b60005b8381101561144557808201518184015260208101905061142a565b83811115611454576000848401525b50505050565b611463826115a9565b810181811067ffffffffffffffff8211171561148257611481611561565b5b80604052505050565b6000611496826113ea565b91507fffffffffffffffffffffffffffffffffffffffffffffffffffffffffffffffff8214156114c9576114c86114d4565b5b600182019050919050565b7f4e487b7100000000000000000000000000000000000000000000000000000000600052601160045260246000fd5b7f4e487b7100000000000000000000000000000000000000000000000000000000600052602160045260246000fd5b7f4e487b7100000000000000000000000000000000000000000000000000000000600052603260045260246000fd5b7f4e487b7100000000000000000000000000000000000000000000000000000000600052604160045260246000fd5b600080fd5b600080fd5b600080fd5b600080fd5b600080fd5b6000601f19601f8301169050919050565b7f4661696c656420746f2073656e642046756e6473000000000000000000000000600082015250565b7f456d61696c2050726f66696c65206e6f74206163746976652e00000000000000600082015250565b7f57726f6e67204c6963656e7365204b6579000000000000000000000000000000600082015250565b50565b61164181611394565b811461164c57600080fd5b50565b611658816113ea565b811461166357600080fd5b5056fea264697066735822122065f2925a40d013b8695e213a4a45186962ba38763e3e3dae5aedd6d2094a681e64736f6c63430008070033",
  "linkReferences": {},
  "deployedLinkReferences": {}
}