{
    "_format": "hh-sol-artifact-1",
    "contractName": "Ethablish",
    "sourceName": "contracts/Ethablish.sol",
    "abi": [
        {
            "inputs": [
                {
                    "internalType": "address",
                    "name": "_trustedForwarder",
                    "type": "address"
                }
            ],
            "stateMutability": "nonpayable",
            "type": "constructor"
        },
        {
            "inputs": [
                {
                    "internalType": "address",
                    "name": "have",
                    "type": "address"
                },
                {
                    "internalType": "address",
                    "name": "want",
                    "type": "address"
                }
            ],
            "name": "OnlyCoordinatorCanFulfill",
            "type": "error"
        },
        {
            "anonymous": false,
            "inputs": [
                {
                    "indexed": true,
                    "internalType": "uint256",
                    "name": "requestId",
                    "type": "uint256"
                },
                {
                    "indexed": false,
                    "internalType": "string",
                    "name": "email",
                    "type": "string"
                }
            ],
            "name": "RequestedVRFKey",
            "type": "event"
        },
        {
            "anonymous": false,
            "inputs": [
                {
                    "indexed": true,
                    "internalType": "uint256",
                    "name": "vrfKey",
                    "type": "uint256"
                },
                {
                    "indexed": false,
                    "internalType": "bytes32",
                    "name": "emailHash",
                    "type": "bytes32"
                }
            ],
            "name": "VRFKeyGenerated",
            "type": "event"
        },
        {
            "inputs": [
                {
                    "internalType": "uint256",
                    "name": "licKey",
                    "type": "uint256"
                },
                {
                    "internalType": "string",
                    "name": "_email",
                    "type": "string"
                }
            ],
            "name": "CreateEmailProfile",
            "outputs": [],
            "stateMutability": "nonpayable",
            "type": "function"
        },
        {
            "inputs": [],
            "name": "getStorage",
            "outputs": [
                {
                    "internalType": "string",
                    "name": "currentQuote",
                    "type": "string"
                },
                {
                    "internalType": "address",
                    "name": "currentOwner",
                    "type": "address"
                }
            ],
            "stateMutability": "view",
            "type": "function"
        },
        {
            "inputs": [
                {
                    "internalType": "string",
                    "name": "_email",
                    "type": "string"
                }
            ],
            "name": "getVRFLicenseKey",
            "outputs": [],
            "stateMutability": "nonpayable",
            "type": "function"
        },
        {
            "inputs": [
                {
                    "internalType": "address",
                    "name": "forwarder",
                    "type": "address"
                }
            ],
            "name": "isTrustedForwarder",
            "outputs": [
                {
                    "internalType": "bool",
                    "name": "",
                    "type": "bool"
                }
            ],
            "stateMutability": "view",
            "type": "function"
        },
        {
            "inputs": [
                {
                    "internalType": "uint256",
                    "name": "requestId",
                    "type": "uint256"
                },
                {
                    "internalType": "uint256[]",
                    "name": "randomWords",
                    "type": "uint256[]"
                }
            ],
            "name": "rawFulfillRandomWords",
            "outputs": [],
            "stateMutability": "nonpayable",
            "type": "function"
        },
        {
            "inputs": [
                {
                    "internalType": "string",
                    "name": "_newData",
                    "type": "string"
                }
            ],
            "name": "setStorage",
            "outputs": [],
            "stateMutability": "nonpayable",
            "type": "function"
        },
        {
            "inputs": [
                {
                    "internalType": "address",
                    "name": "_trustedForwarder",
                    "type": "address"
                }
            ],
            "name": "setTrustForwarder",
            "outputs": [],
            "stateMutability": "nonpayable",
            "type": "function"
        },
        {
            "inputs": [],
            "name": "trustedForwarder",
            "outputs": [
                {
                    "internalType": "address",
                    "name": "",
                    "type": "address"
                }
            ],
            "stateMutability": "view",
            "type": "function"
        },
        {
            "inputs": [
                {
                    "internalType": "string",
                    "name": "_email",
                    "type": "string"
                },
                {
                    "internalType": "address",
                    "name": "_accountAddress",
                    "type": "address"
                }
            ],
            "name": "verifyEmailProfile",
            "outputs": [
                {
                    "internalType": "bool",
                    "name": "",
                    "type": "bool"
                }
            ],
            "stateMutability": "view",
            "type": "function"
        },
        {
            "inputs": [],
            "name": "versionRecipient",
            "outputs": [
                {
                    "internalType": "string",
                    "name": "",
                    "type": "string"
                }
            ],
            "stateMutability": "pure",
            "type": "function"
        }
    ],
    "bytecode": "0x610120604052737a1bac17ccc5b313516c5e16fb24f7659aa5ebed600260006101000a81548173ffffffffffffffffffffffffffffffffffffffff021916908373ffffffffffffffffffffffffffffffffffffffff16021790555073326c977e6efc84e512bb9c30f76e30c160ed06fb600360006101000a81548173ffffffffffffffffffffffffffffffffffffffff021916908373ffffffffffffffffffffffffffffffffffffffff1602179055507f4b09e658ed251bcafeebbc69400383d49f344ace09b9576fe248bb02c003fe9f60001b600455620186a0600560006101000a81548163ffffffff021916908363ffffffff160217905550610138600560046101000a81548167ffffffffffffffff021916908367ffffffffffffffff16021790555061016d600d553480156200013857600080fd5b506040516200189a3803806200189a83398181016040528101906200015e91906200032e565b600260009054906101000a900473ffffffffffffffffffffffffffffffffffffffff168073ffffffffffffffffffffffffffffffffffffffff1660808173ffffffffffffffffffffffffffffffffffffffff1660601b8152505050620001ca81620002d460201b60201c565b600260009054906101000a900473ffffffffffffffffffffffffffffffffffffffff1673ffffffffffffffffffffffffffffffffffffffff1660a08173ffffffffffffffffffffffffffffffffffffffff1660601b8152505060045460e08181525050600560049054906101000a900467ffffffffffffffff1667ffffffffffffffff1660c08167ffffffffffffffff1660c01b81525050600560009054906101000a900463ffffffff1663ffffffff166101008163ffffffff1660e01b8152505033600760006101000a81548173ffffffffffffffffffffffffffffffffffffffff021916908373ffffffffffffffffffffffffffffffffffffffff16021790555050620003b3565b806000806101000a81548173ffffffffffffffffffffffffffffffffffffffff021916908373ffffffffffffffffffffffffffffffffffffffff16021790555050565b600081519050620003288162000399565b92915050565b60006020828403121562000347576200034662000394565b5b6000620003578482850162000317565b91505092915050565b60006200036d8262000374565b9050919050565b600073ffffffffffffffffffffffffffffffffffffffff82169050919050565b600080fd5b620003a48162000360565b8114620003b057600080fd5b50565b60805160601c60a05160601c60c05160c01c60e0516101005160e01c61148f6200040b600039600061050e015260006104ca015260006104eb0152600061048e0152600081816101ec0152610240015261148f6000f3fe608060405234801561001057600080fd5b506004361061009e5760003560e01c80636f5d4013116100665780636f5d40131461015c5780637da0a87714610178578063914fca4614610196578063a57b0b0b146101b2578063ddf0b3da146101ce5761009e565b80631fe543e3146100a35780632ee56705146100bf5780633408f73a146100ef578063486ff0cd1461010e578063572b6c051461012c575b600080fd5b6100bd60048036038101906100b89190610dda565b6101ea565b005b6100d960048036038101906100d49190610d51565b6102aa565b6040516100e69190610f8c565b60405180910390f35b6100f7610337565b604051610105929190611037565b60405180910390f35b6101166103f4565b6040516101239190611015565b60405180910390f35b61014660048036038101906101419190610cdb565b610431565b6040516101539190610f8c565b60405180910390f35b61017660048036038101906101719190610d08565b61048a565b005b610180610702565b60405161018d9190610f48565b60405180910390f35b6101b060048036038101906101ab9190610e36565b61072b565b005b6101cc60048036038101906101c79190610d08565b61097f565b005b6101e860048036038101906101e39190610cdb565b610999565b005b7f000000000000000000000000000000000000000000000000000000000000000073ffffffffffffffffffffffffffffffffffffffff163373ffffffffffffffffffffffffffffffffffffffff161461029c57337f00000000000000000000000000000000000000000000000000000000000000006040517f1cf993f4000000000000000000000000000000000000000000000000000000008152600401610293929190610f63565b60405180910390fd5b6102a682826109ff565b5050565b600080600090506000848051906020012090508373ffffffffffffffffffffffffffffffffffffffff16600a600083815260200190815260200160002060010160009054906101000a900473ffffffffffffffffffffffffffffffffffffffff1673ffffffffffffffffffffffffffffffffffffffff16141561032c57600191505b819250505092915050565b606060006001600760009054906101000a900473ffffffffffffffffffffffffffffffffffffffff1681805461036c90611241565b80601f016020809104026020016040519081016040528092919081815260200182805461039890611241565b80156103e55780601f106103ba576101008083540402835291602001916103e5565b820191906000526020600020905b8154815290600101906020018083116103c857829003601f168201915b50505050509150915091509091565b60606040518060400160405280600181526020017f3100000000000000000000000000000000000000000000000000000000000000815250905090565b60008060009054906101000a900473ffffffffffffffffffffffffffffffffffffffff1673ffffffffffffffffffffffffffffffffffffffff168273ffffffffffffffffffffffffffffffffffffffff16149050919050565b60007f000000000000000000000000000000000000000000000000000000000000000073ffffffffffffffffffffffffffffffffffffffff16635d3b1d307f00000000000000000000000000000000000000000000000000000000000000007f000000000000000000000000000000000000000000000000000000000000000060037f000000000000000000000000000000000000000000000000000000000000000060016040518663ffffffff1660e01b815260040161054f959493929190610fc2565b602060405180830381600087803b15801561056957600080fd5b505af115801561057d573d6000803e3d6000fd5b505050506040513d601f19601f820116820180604052508101906105a19190610dad565b9050600082805190602001209050817f776f46bd14481bd474770ae18d927eca8ec27597202d9333bcad6e8482a36b10846040516105df9190611015565b60405180910390a26040518060a00160405280828152602001600073ffffffffffffffffffffffffffffffffffffffff16815260200160008152602001600060028111156106305761062f61131c565b5b81526020016000815250600a60008381526020019081526020016000206000820151816000015560208201518160010160006101000a81548173ffffffffffffffffffffffffffffffffffffffff021916908373ffffffffffffffffffffffffffffffffffffffff1602179055506040820151816002015560608201518160030160006101000a81548160ff021916908360028111156106d3576106d261131c565b5b021790555060808201518160040155905050806008600084815260200190815260200160002081905550505050565b60008060009054906101000a900473ffffffffffffffffffffffffffffffffffffffff16905090565b60008180519060200120905082600a6000838152602001908152602001600020600201541461078f576040517f08c379a000000000000000000000000000000000000000000000000000000000815260040161078690611067565b60405180910390fd5b33600a600083815260200190815260200160002060010160006101000a81548173ffffffffffffffffffffffffffffffffffffffff021916908373ffffffffffffffffffffffffffffffffffffffff1602179055506001600a600083815260200190815260200160002060030160006101000a81548160ff0219169083600281111561081e5761081d61131c565b5b0217905550600d54426108319190611125565b600a600083815260200190815260200160002060040181905550600a6000828152602001908152602001600020600960003373ffffffffffffffffffffffffffffffffffffffff1673ffffffffffffffffffffffffffffffffffffffff168152602001908152602001600020600082015481600001556001820160009054906101000a900473ffffffffffffffffffffffffffffffffffffffff168160010160006101000a81548173ffffffffffffffffffffffffffffffffffffffff021916908373ffffffffffffffffffffffffffffffffffffffff160217905550600282015481600201556003820160009054906101000a900460ff168160030160006101000a81548160ff021916908360028111156109505761094f61131c565b5b021790555060048201548160040155905050600c6000815480929190610975906112a4565b9190505550505050565b8060019080519060200190610995929190610aeb565b5050565b600760009054906101000a900473ffffffffffffffffffffffffffffffffffffffff1673ffffffffffffffffffffffffffffffffffffffff163373ffffffffffffffffffffffffffffffffffffffff16146109f357600080fd5b6109fc81610aa8565b50565b600081600081518110610a1557610a1461137a565b5b6020026020010151905060006008600085815260200190815260200160002054905081600a600083815260200190815260200160002060020181905550600b6000815480929190610a65906112a4565b9190505550817f46032dbc001d64bc02bb481caec9bcdb9e631e322518754a33171e399aac0ef882604051610a9a9190610fa7565b60405180910390a250505050565b806000806101000a81548173ffffffffffffffffffffffffffffffffffffffff021916908373ffffffffffffffffffffffffffffffffffffffff16021790555050565b828054610af790611241565b90600052602060002090601f016020900481019282610b195760008555610b60565b82601f10610b3257805160ff1916838001178555610b60565b82800160010185558215610b60579182015b82811115610b5f578251825591602001919060010190610b44565b5b509050610b6d9190610b71565b5090565b5b80821115610b8a576000816000905550600101610b72565b5090565b6000610ba1610b9c846110ac565b611087565b90508083825260208201905082856020860282011115610bc457610bc36113dd565b5b60005b85811015610bf45781610bda8882610cb1565b845260208401935060208301925050600181019050610bc7565b5050509392505050565b6000610c11610c0c846110d8565b611087565b905082815260208101848484011115610c2d57610c2c6113e2565b5b610c388482856111ff565b509392505050565b600081359050610c4f8161142b565b92915050565b600082601f830112610c6a57610c696113d8565b5b8135610c7a848260208601610b8e565b91505092915050565b600082601f830112610c9857610c976113d8565b5b8135610ca8848260208601610bfe565b91505092915050565b600081359050610cc081611442565b92915050565b600081519050610cd581611442565b92915050565b600060208284031215610cf157610cf06113ec565b5b6000610cff84828501610c40565b91505092915050565b600060208284031215610d1e57610d1d6113ec565b5b600082013567ffffffffffffffff811115610d3c57610d3b6113e7565b5b610d4884828501610c83565b91505092915050565b60008060408385031215610d6857610d676113ec565b5b600083013567ffffffffffffffff811115610d8657610d856113e7565b5b610d9285828601610c83565b9250506020610da385828601610c40565b9150509250929050565b600060208284031215610dc357610dc26113ec565b5b6000610dd184828501610cc6565b91505092915050565b60008060408385031215610df157610df06113ec565b5b6000610dff85828601610cb1565b925050602083013567ffffffffffffffff811115610e2057610e1f6113e7565b5b610e2c85828601610c55565b9150509250929050565b60008060408385031215610e4d57610e4c6113ec565b5b6000610e5b85828601610cb1565b925050602083013567ffffffffffffffff811115610e7c57610e7b6113e7565b5b610e8885828601610c83565b9150509250929050565b610e9b8161117b565b82525050565b610eaa8161118d565b82525050565b610eb981611199565b82525050565b6000610eca82611109565b610ed48185611114565b9350610ee481856020860161120e565b610eed816113f1565b840191505092915050565b6000610f05601183611114565b9150610f1082611402565b602082019050919050565b610f24816111a3565b82525050565b610f33816111db565b82525050565b610f42816111eb565b82525050565b6000602082019050610f5d6000830184610e92565b92915050565b6000604082019050610f786000830185610e92565b610f856020830184610e92565b9392505050565b6000602082019050610fa16000830184610ea1565b92915050565b6000602082019050610fbc6000830184610eb0565b92915050565b600060a082019050610fd76000830188610eb0565b610fe46020830187610f39565b610ff16040830186610f1b565b610ffe6060830185610f2a565b61100b6080830184610f2a565b9695505050505050565b6000602082019050818103600083015261102f8184610ebf565b905092915050565b600060408201905081810360008301526110518185610ebf565b90506110606020830184610e92565b9392505050565b6000602082019050818103600083015261108081610ef8565b9050919050565b60006110916110a2565b905061109d8282611273565b919050565b6000604051905090565b600067ffffffffffffffff8211156110c7576110c66113a9565b5b602082029050602081019050919050565b600067ffffffffffffffff8211156110f3576110f26113a9565b5b6110fc826113f1565b9050602081019050919050565b600081519050919050565b600082825260208201905092915050565b6000611130826111d1565b915061113b836111d1565b9250827fffffffffffffffffffffffffffffffffffffffffffffffffffffffffffffffff038211156111705761116f6112ed565b5b828201905092915050565b6000611186826111b1565b9050919050565b60008115159050919050565b6000819050919050565b600061ffff82169050919050565b600073ffffffffffffffffffffffffffffffffffffffff82169050919050565b6000819050919050565b600063ffffffff82169050919050565b600067ffffffffffffffff82169050919050565b82818337600083830152505050565b60005b8381101561122c578082015181840152602081019050611211565b8381111561123b576000848401525b50505050565b6000600282049050600182168061125957607f821691505b6020821081141561126d5761126c61134b565b5b50919050565b61127c826113f1565b810181811067ffffffffffffffff8211171561129b5761129a6113a9565b5b80604052505050565b60006112af826111d1565b91507fffffffffffffffffffffffffffffffffffffffffffffffffffffffffffffffff8214156112e2576112e16112ed565b5b600182019050919050565b7f4e487b7100000000000000000000000000000000000000000000000000000000600052601160045260246000fd5b7f4e487b7100000000000000000000000000000000000000000000000000000000600052602160045260246000fd5b7f4e487b7100000000000000000000000000000000000000000000000000000000600052602260045260246000fd5b7f4e487b7100000000000000000000000000000000000000000000000000000000600052603260045260246000fd5b7f4e487b7100000000000000000000000000000000000000000000000000000000600052604160045260246000fd5b600080fd5b600080fd5b600080fd5b600080fd5b600080fd5b6000601f19601f8301169050919050565b7f57726f6e67204c6963656e7365204b6579000000000000000000000000000000600082015250565b6114348161117b565b811461143f57600080fd5b50565b61144b816111d1565b811461145657600080fd5b5056fea2646970667358221220c2605284e85462a408891f922a1effb55e586fc3ae61a323deb3f04b6f76182464736f6c63430008070033",
    "linkReferences": {},
    "deployedLinkReferences": {}
}