{
  "_format": "hh-sol-artifact-1",
  "contractName": "Ethablish",
  "sourceName": "contracts/Ethablish.sol",
  "abi": [
    {
      "inputs": [
        {
          "internalType": "address",
          "name": "_trustedForwarder",
          "type": "address"
        }
      ],
      "stateMutability": "nonpayable",
      "type": "constructor"
    },
    {
      "inputs": [
        {
          "internalType": "address",
          "name": "have",
          "type": "address"
        },
        {
          "internalType": "address",
          "name": "want",
          "type": "address"
        }
      ],
      "name": "OnlyCoordinatorCanFulfill",
      "type": "error"
    },
    {
      "anonymous": false,
      "inputs": [
        {
          "indexed": true,
          "internalType": "uint256",
          "name": "requestId",
          "type": "uint256"
        }
      ],
      "name": "RequestedVRFKey",
      "type": "event"
    },
    {
      "anonymous": false,
      "inputs": [
        {
          "indexed": true,
          "internalType": "uint256",
          "name": "vrfKey",
          "type": "uint256"
        },
        {
          "indexed": false,
          "internalType": "bytes32",
          "name": "emailHash",
          "type": "bytes32"
        }
      ],
      "name": "VRFKeyGenerated",
      "type": "event"
    },
    {
      "inputs": [
        {
          "internalType": "uint256",
          "name": "licKey",
          "type": "uint256"
        },
        {
          "internalType": "string",
          "name": "_email",
          "type": "string"
        }
      ],
      "name": "CreateEmailProfile",
      "outputs": [],
      "stateMutability": "nonpayable",
      "type": "function"
    },
    {
      "inputs": [
        {
          "internalType": "string",
          "name": "_email",
          "type": "string"
        }
      ],
      "name": "SendFundViaEmailProfileCall",
      "outputs": [
        {
          "internalType": "bool",
          "name": "",
          "type": "bool"
        }
      ],
      "stateMutability": "payable",
      "type": "function"
    },
    {
      "inputs": [],
      "name": "emailProfileCount",
      "outputs": [
        {
          "internalType": "uint256",
          "name": "",
          "type": "uint256"
        }
      ],
      "stateMutability": "view",
      "type": "function"
    },
    {
      "inputs": [
        {
          "internalType": "string",
          "name": "_email",
          "type": "string"
        }
      ],
      "name": "getVRFLicenseKey",
      "outputs": [],
      "stateMutability": "nonpayable",
      "type": "function"
    },
    {
      "inputs": [
        {
          "internalType": "address",
          "name": "forwarder",
          "type": "address"
        }
      ],
      "name": "isTrustedForwarder",
      "outputs": [
        {
          "internalType": "bool",
          "name": "",
          "type": "bool"
        }
      ],
      "stateMutability": "view",
      "type": "function"
    },
    {
      "inputs": [],
      "name": "licenseKeyCount",
      "outputs": [
        {
          "internalType": "uint256",
          "name": "",
          "type": "uint256"
        }
      ],
      "stateMutability": "view",
      "type": "function"
    },
    {
      "inputs": [
        {
          "internalType": "uint256",
          "name": "requestId",
          "type": "uint256"
        },
        {
          "internalType": "uint256[]",
          "name": "randomWords",
          "type": "uint256[]"
        }
      ],
      "name": "rawFulfillRandomWords",
      "outputs": [],
      "stateMutability": "nonpayable",
      "type": "function"
    },
    {
      "inputs": [
        {
          "internalType": "address",
          "name": "_trustedForwarder",
          "type": "address"
        }
      ],
      "name": "setTrustForwarder",
      "outputs": [],
      "stateMutability": "nonpayable",
      "type": "function"
    },
    {
      "inputs": [],
      "name": "trustedForwarder",
      "outputs": [
        {
          "internalType": "address",
          "name": "",
          "type": "address"
        }
      ],
      "stateMutability": "view",
      "type": "function"
    },
    {
      "inputs": [
        {
          "internalType": "string",
          "name": "_email",
          "type": "string"
        },
        {
          "internalType": "address",
          "name": "_accountAddress",
          "type": "address"
        }
      ],
      "name": "verifyEmailProfile",
      "outputs": [
        {
          "internalType": "bool",
          "name": "",
          "type": "bool"
        }
      ],
      "stateMutability": "view",
      "type": "function"
    },
    {
      "inputs": [],
      "name": "versionRecipient",
      "outputs": [
        {
          "internalType": "string",
          "name": "",
          "type": "string"
        }
      ],
      "stateMutability": "pure",
      "type": "function"
    }
  ],
  "bytecode": "0x610120604052737a1bac17ccc5b313516c5e16fb24f7659aa5ebed600160006101000a81548173ffffffffffffffffffffffffffffffffffffffff021916908373ffffffffffffffffffffffffffffffffffffffff16021790555073326c977e6efc84e512bb9c30f76e30c160ed06fb600260006101000a81548173ffffffffffffffffffffffffffffffffffffffff021916908373ffffffffffffffffffffffffffffffffffffffff1602179055507f4b09e658ed251bcafeebbc69400383d49f344ace09b9576fe248bb02c003fe9f60001b600355620186a0600460006101000a81548163ffffffff021916908363ffffffff1602179055506101386004806101000a81548167ffffffffffffffff021916908367ffffffffffffffff16021790555061016d600c553480156200013757600080fd5b5060405162001a6438038062001a6483398181016040528101906200015d91906200032b565b600160009054906101000a900473ffffffffffffffffffffffffffffffffffffffff168073ffffffffffffffffffffffffffffffffffffffff1660808173ffffffffffffffffffffffffffffffffffffffff1660601b8152505050620001c981620002d160201b60201c565b600160009054906101000a900473ffffffffffffffffffffffffffffffffffffffff1673ffffffffffffffffffffffffffffffffffffffff1660a08173ffffffffffffffffffffffffffffffffffffffff1660601b8152505060035460e0818152505060048054906101000a900467ffffffffffffffff1667ffffffffffffffff1660c08167ffffffffffffffff1660c01b81525050600460009054906101000a900463ffffffff1663ffffffff166101008163ffffffff1660e01b8152505033600660006101000a81548173ffffffffffffffffffffffffffffffffffffffff021916908373ffffffffffffffffffffffffffffffffffffffff16021790555050620003b0565b806000806101000a81548173ffffffffffffffffffffffffffffffffffffffff021916908373ffffffffffffffffffffffffffffffffffffffff16021790555050565b600081519050620003258162000396565b92915050565b60006020828403121562000344576200034362000391565b5b6000620003548482850162000314565b91505092915050565b60006200036a8262000371565b9050919050565b600073ffffffffffffffffffffffffffffffffffffffff82169050919050565b600080fd5b620003a1816200035d565b8114620003ad57600080fd5b50565b60805160601c60a05160601c60c05160c01c60e0516101005160e01c61165c6200040860003960006106a20152600061065e0152600061067f0152600061062201526000818161029d01526102f1015261165c6000f3fe60806040526004361061009c5760003560e01c8063572b6c0511610064578063572b6c051461018d5780636f5d4013146101ca5780637da0a877146101f3578063914fca461461021e578063ddf0b3da14610247578063e1f87d9c146102705761009c565b80631fe543e3146100a157806328acebab146100ca5780632ee56705146100fa57806334564b9b14610137578063486ff0cd14610162575b600080fd5b3480156100ad57600080fd5b506100c860048036038101906100c39190610ef0565b61029b565b005b6100e460048036038101906100df9190610e1e565b61035b565b6040516100f1919061112f565b60405180910390f35b34801561010657600080fd5b50610121600480360381019061011c9190610e67565b6104a4565b60405161012e919061112f565b60405180910390f35b34801561014357600080fd5b5061014c610582565b604051610159919061123a565b60405180910390f35b34801561016e57600080fd5b50610177610588565b60405161018491906111b8565b60405180910390f35b34801561019957600080fd5b506101b460048036038101906101af9190610df1565b6105c5565b6040516101c1919061112f565b60405180910390f35b3480156101d657600080fd5b506101f160048036038101906101ec9190610e1e565b61061e565b005b3480156101ff57600080fd5b5061020861088b565b60405161021591906110eb565b60405180910390f35b34801561022a57600080fd5b5061024560048036038101906102409190610f4c565b6108b4565b005b34801561025357600080fd5b5061026e60048036038101906102699190610df1565b610b15565b005b34801561027c57600080fd5b50610285610b7b565b604051610292919061123a565b60405180910390f35b7f000000000000000000000000000000000000000000000000000000000000000073ffffffffffffffffffffffffffffffffffffffff163373ffffffffffffffffffffffffffffffffffffffff161461034d57337f00000000000000000000000000000000000000000000000000000000000000006040517f1cf993f4000000000000000000000000000000000000000000000000000000008152600401610344929190611106565b60405180910390fd5b6103578282610b81565b5050565b600061036782336104a4565b6103a6576040517f08c379a000000000000000000000000000000000000000000000000000000000815260040161039d9061121a565b60405180910390fd5b60008280519060200120905060006009600083815260200190815260200160002060010160009054906101000a900473ffffffffffffffffffffffffffffffffffffffff16905060008173ffffffffffffffffffffffffffffffffffffffff1634604051610413906110d6565b60006040518083038185875af1925050503d8060008114610450576040519150601f19603f3d011682016040523d82523d6000602084013e610455565b606091505b5050905080610499576040517f08c379a0000000000000000000000000000000000000000000000000000000008152600401610490906111da565b60405180910390fd5b809350505050919050565b600080600090506000848051906020012090508373ffffffffffffffffffffffffffffffffffffffff166009600083815260200190815260200160002060010160009054906101000a900473ffffffffffffffffffffffffffffffffffffffff1673ffffffffffffffffffffffffffffffffffffffff1614156105775760026003811115610535576105346114c3565b5b6009600083815260200190815260200160002060030160009054906101000a900460ff16600381111561056b5761056a6114c3565b5b141561057657600191505b5b819250505092915050565b600a5481565b60606040518060400160405280600181526020017f3100000000000000000000000000000000000000000000000000000000000000815250905090565b60008060009054906101000a900473ffffffffffffffffffffffffffffffffffffffff1673ffffffffffffffffffffffffffffffffffffffff168273ffffffffffffffffffffffffffffffffffffffff16149050919050565b60007f000000000000000000000000000000000000000000000000000000000000000073ffffffffffffffffffffffffffffffffffffffff16635d3b1d307f00000000000000000000000000000000000000000000000000000000000000007f000000000000000000000000000000000000000000000000000000000000000060037f000000000000000000000000000000000000000000000000000000000000000060016040518663ffffffff1660e01b81526004016106e3959493929190611165565b602060405180830381600087803b1580156106fd57600080fd5b505af1158015610711573d6000803e3d6000fd5b505050506040513d601f19601f820116820180604052508101906107359190610ec3565b90506000828051906020012090506040518060a00160405280828152602001600073ffffffffffffffffffffffffffffffffffffffff168152602001600081526020016001600381111561078c5761078b6114c3565b5b81526020016000815250600960008381526020019081526020016000206000820151816000015560208201518160010160006101000a81548173ffffffffffffffffffffffffffffffffffffffff021916908373ffffffffffffffffffffffffffffffffffffffff1602179055506040820151816002015560608201518160030160006101000a81548160ff0219169083600381111561082f5761082e6114c3565b5b021790555060808201518160040155905050806007600084815260200190815260200160002081905550817fc8b9ddb86644ce85ae28b19d9faa6c81a0d5fe729c265141e30b9911410c7c6760405160405180910390a2505050565b60008060009054906101000a900473ffffffffffffffffffffffffffffffffffffffff16905090565b60008180519060200120905082600960008381526020019081526020016000206002015414610918576040517f08c379a000000000000000000000000000000000000000000000000000000000815260040161090f906111fa565b60405180910390fd5b6000610922610c2a565b9050806009600084815260200190815260200160002060010160006101000a81548173ffffffffffffffffffffffffffffffffffffffff021916908373ffffffffffffffffffffffffffffffffffffffff16021790555060026009600084815260200190815260200160002060030160006101000a81548160ff021916908360038111156109b3576109b26114c3565b5b0217905550600c54426109c691906112fe565b600960008481526020019081526020016000206004018190555060096000838152602001908152602001600020600860008373ffffffffffffffffffffffffffffffffffffffff1673ffffffffffffffffffffffffffffffffffffffff168152602001908152602001600020600082015481600001556001820160009054906101000a900473ffffffffffffffffffffffffffffffffffffffff168160010160006101000a81548173ffffffffffffffffffffffffffffffffffffffff021916908373ffffffffffffffffffffffffffffffffffffffff160217905550600282015481600201556003820160009054906101000a900460ff168160030160006101000a81548160ff02191690836003811115610ae557610ae46114c3565b5b021790555060048201548160040155905050600b6000815480929190610b0a9061144b565b919050555050505050565b600660009054906101000a900473ffffffffffffffffffffffffffffffffffffffff1673ffffffffffffffffffffffffffffffffffffffff163373ffffffffffffffffffffffffffffffffffffffff1614610b6f57600080fd5b610b7881610c61565b50565b600b5481565b600081600081518110610b9757610b966114f2565b5b60200260200101519050600060076000858152602001908152602001600020549050816009600083815260200190815260200160002060020181905550600a6000815480929190610be79061144b565b9190505550817f46032dbc001d64bc02bb481caec9bcdb9e631e322518754a33171e399aac0ef882604051610c1c919061114a565b60405180910390a250505050565b60006014600036905010158015610c465750610c45336105c5565b5b15610c5a57601436033560601c9050610c5e565b3390505b90565b806000806101000a81548173ffffffffffffffffffffffffffffffffffffffff021916908373ffffffffffffffffffffffffffffffffffffffff16021790555050565b6000610cb7610cb28461127a565b611255565b90508083825260208201905082856020860282011115610cda57610cd9611555565b5b60005b85811015610d0a5781610cf08882610dc7565b845260208401935060208301925050600181019050610cdd565b5050509392505050565b6000610d27610d22846112a6565b611255565b905082815260208101848484011115610d4357610d4261155a565b5b610d4e8482856113d8565b509392505050565b600081359050610d65816115f8565b92915050565b600082601f830112610d8057610d7f611550565b5b8135610d90848260208601610ca4565b91505092915050565b600082601f830112610dae57610dad611550565b5b8135610dbe848260208601610d14565b91505092915050565b600081359050610dd68161160f565b92915050565b600081519050610deb8161160f565b92915050565b600060208284031215610e0757610e06611564565b5b6000610e1584828501610d56565b91505092915050565b600060208284031215610e3457610e33611564565b5b600082013567ffffffffffffffff811115610e5257610e5161155f565b5b610e5e84828501610d99565b91505092915050565b60008060408385031215610e7e57610e7d611564565b5b600083013567ffffffffffffffff811115610e9c57610e9b61155f565b5b610ea885828601610d99565b9250506020610eb985828601610d56565b9150509250929050565b600060208284031215610ed957610ed8611564565b5b6000610ee784828501610ddc565b91505092915050565b60008060408385031215610f0757610f06611564565b5b6000610f1585828601610dc7565b925050602083013567ffffffffffffffff811115610f3657610f3561155f565b5b610f4285828601610d6b565b9150509250929050565b60008060408385031215610f6357610f62611564565b5b6000610f7185828601610dc7565b925050602083013567ffffffffffffffff811115610f9257610f9161155f565b5b610f9e85828601610d99565b9150509250929050565b610fb181611354565b82525050565b610fc081611366565b82525050565b610fcf81611372565b82525050565b6000610fe0826112d7565b610fea81856112ed565b9350610ffa8185602086016113e7565b61100381611569565b840191505092915050565b600061101b6014836112ed565b91506110268261157a565b602082019050919050565b600061103e6011836112ed565b9150611049826115a3565b602082019050919050565b60006110616000836112e2565b915061106c826115cc565b600082019050919050565b6000611084601b836112ed565b915061108f826115cf565b602082019050919050565b6110a38161137c565b82525050565b6110b2816113aa565b82525050565b6110c1816113b4565b82525050565b6110d0816113c4565b82525050565b60006110e182611054565b9150819050919050565b60006020820190506111006000830184610fa8565b92915050565b600060408201905061111b6000830185610fa8565b6111286020830184610fa8565b9392505050565b60006020820190506111446000830184610fb7565b92915050565b600060208201905061115f6000830184610fc6565b92915050565b600060a08201905061117a6000830188610fc6565b61118760208301876110c7565b611194604083018661109a565b6111a160608301856110b8565b6111ae60808301846110b8565b9695505050505050565b600060208201905081810360008301526111d28184610fd5565b905092915050565b600060208201905081810360008301526111f38161100e565b9050919050565b6000602082019050818103600083015261121381611031565b9050919050565b6000602082019050818103600083015261123381611077565b9050919050565b600060208201905061124f60008301846110a9565b92915050565b600061125f611270565b905061126b828261141a565b919050565b6000604051905090565b600067ffffffffffffffff82111561129557611294611521565b5b602082029050602081019050919050565b600067ffffffffffffffff8211156112c1576112c0611521565b5b6112ca82611569565b9050602081019050919050565b600081519050919050565b600081905092915050565b600082825260208201905092915050565b6000611309826113aa565b9150611314836113aa565b9250827fffffffffffffffffffffffffffffffffffffffffffffffffffffffffffffffff0382111561134957611348611494565b5b828201905092915050565b600061135f8261138a565b9050919050565b60008115159050919050565b6000819050919050565b600061ffff82169050919050565b600073ffffffffffffffffffffffffffffffffffffffff82169050919050565b6000819050919050565b600063ffffffff82169050919050565b600067ffffffffffffffff82169050919050565b82818337600083830152505050565b60005b838110156114055780820151818401526020810190506113ea565b83811115611414576000848401525b50505050565b61142382611569565b810181811067ffffffffffffffff8211171561144257611441611521565b5b80604052505050565b6000611456826113aa565b91507fffffffffffffffffffffffffffffffffffffffffffffffffffffffffffffffff82141561148957611488611494565b5b600182019050919050565b7f4e487b7100000000000000000000000000000000000000000000000000000000600052601160045260246000fd5b7f4e487b7100000000000000000000000000000000000000000000000000000000600052602160045260246000fd5b7f4e487b7100000000000000000000000000000000000000000000000000000000600052603260045260246000fd5b7f4e487b7100000000000000000000000000000000000000000000000000000000600052604160045260246000fd5b600080fd5b600080fd5b600080fd5b600080fd5b600080fd5b6000601f19601f8301169050919050565b7f4661696c656420746f2073656e642046756e6473000000000000000000000000600082015250565b7f57726f6e67204c6963656e7365204b6579000000000000000000000000000000600082015250565b50565b7f4e6f74206120566572696669656420456d61696c50726f66696c650000000000600082015250565b61160181611354565b811461160c57600080fd5b50565b611618816113aa565b811461162357600080fd5b5056fea2646970667358221220a16c31814a87b145b2132461cac41c32d348654a61c4c7e7606e3bc04278a87e64736f6c63430008070033",
  "linkReferences": {},
  "deployedLinkReferences": {}
}