{
    "_format": "hh-sol-artifact-1",
    "contractName": "Ethablish",
    "sourceName": "contracts/Ethablish.sol",
    "abi": [
        {
            "inputs": [
                {
                    "internalType": "address",
                    "name": "_trustedForwarder",
                    "type": "address"
                }
            ],
            "stateMutability": "nonpayable",
            "type": "constructor"
        },
        {
            "inputs": [
                {
                    "internalType": "address",
                    "name": "have",
                    "type": "address"
                },
                {
                    "internalType": "address",
                    "name": "want",
                    "type": "address"
                }
            ],
            "name": "OnlyCoordinatorCanFulfill",
            "type": "error"
        },
        {
            "anonymous": false,
            "inputs": [
                {
                    "indexed": true,
                    "internalType": "uint256",
                    "name": "requestId",
                    "type": "uint256"
                },
                {
                    "indexed": false,
                    "internalType": "string",
                    "name": "email",
                    "type": "string"
                }
            ],
            "name": "RequestedVRFKey",
            "type": "event"
        },
        {
            "anonymous": false,
            "inputs": [
                {
                    "indexed": true,
                    "internalType": "uint256",
                    "name": "vrfKey",
                    "type": "uint256"
                },
                {
                    "indexed": false,
                    "internalType": "bytes32",
                    "name": "emailHash",
                    "type": "bytes32"
                }
            ],
            "name": "VRFKeyGenerated",
            "type": "event"
        },
        {
            "inputs": [
                {
                    "internalType": "uint256",
                    "name": "licKey",
                    "type": "uint256"
                },
                {
                    "internalType": "string",
                    "name": "_email",
                    "type": "string"
                }
            ],
            "name": "CreateEmailProfile",
            "outputs": [],
            "stateMutability": "nonpayable",
            "type": "function"
        },
        {
            "inputs": [
                {
                    "internalType": "address",
                    "name": "",
                    "type": "address"
                }
            ],
            "name": "accountToEmailProfile",
            "outputs": [
                {
                    "internalType": "bytes32",
                    "name": "emailHash",
                    "type": "bytes32"
                },
                {
                    "internalType": "address",
                    "name": "accountAddress",
                    "type": "address"
                },
                {
                    "internalType": "uint256",
                    "name": "licKey",
                    "type": "uint256"
                },
                {
                    "internalType": "enum Ethablish.LicenseStatus",
                    "name": "licenseStatus",
                    "type": "uint8"
                },
                {
                    "internalType": "uint256",
                    "name": "expiryTime",
                    "type": "uint256"
                }
            ],
            "stateMutability": "view",
            "type": "function"
        },
        {
            "inputs": [
                {
                    "internalType": "bytes32",
                    "name": "",
                    "type": "bytes32"
                }
            ],
            "name": "emailHashToEmailProfile",
            "outputs": [
                {
                    "internalType": "bytes32",
                    "name": "emailHash",
                    "type": "bytes32"
                },
                {
                    "internalType": "address",
                    "name": "accountAddress",
                    "type": "address"
                },
                {
                    "internalType": "uint256",
                    "name": "licKey",
                    "type": "uint256"
                },
                {
                    "internalType": "enum Ethablish.LicenseStatus",
                    "name": "licenseStatus",
                    "type": "uint8"
                },
                {
                    "internalType": "uint256",
                    "name": "expiryTime",
                    "type": "uint256"
                }
            ],
            "stateMutability": "view",
            "type": "function"
        },
        {
            "inputs": [],
            "name": "emailProfileCount",
            "outputs": [
                {
                    "internalType": "uint256",
                    "name": "",
                    "type": "uint256"
                }
            ],
            "stateMutability": "view",
            "type": "function"
        },
        {
            "inputs": [],
            "name": "getStorage",
            "outputs": [
                {
                    "internalType": "string",
                    "name": "currentQuote",
                    "type": "string"
                },
                {
                    "internalType": "address",
                    "name": "currentOwner",
                    "type": "address"
                }
            ],
            "stateMutability": "view",
            "type": "function"
        },
        {
            "inputs": [
                {
                    "internalType": "string",
                    "name": "_email",
                    "type": "string"
                }
            ],
            "name": "getVRFLicenseKey",
            "outputs": [],
            "stateMutability": "nonpayable",
            "type": "function"
        },
        {
            "inputs": [
                {
                    "internalType": "address",
                    "name": "forwarder",
                    "type": "address"
                }
            ],
            "name": "isTrustedForwarder",
            "outputs": [
                {
                    "internalType": "bool",
                    "name": "",
                    "type": "bool"
                }
            ],
            "stateMutability": "view",
            "type": "function"
        },
        {
            "inputs": [],
            "name": "licenseKeyCount",
            "outputs": [
                {
                    "internalType": "uint256",
                    "name": "",
                    "type": "uint256"
                }
            ],
            "stateMutability": "view",
            "type": "function"
        },
        {
            "inputs": [
                {
                    "internalType": "uint256",
                    "name": "requestId",
                    "type": "uint256"
                },
                {
                    "internalType": "uint256[]",
                    "name": "randomWords",
                    "type": "uint256[]"
                }
            ],
            "name": "rawFulfillRandomWords",
            "outputs": [],
            "stateMutability": "nonpayable",
            "type": "function"
        },
        {
            "inputs": [
                {
                    "internalType": "uint256",
                    "name": "",
                    "type": "uint256"
                }
            ],
            "name": "requestIdToEmailHash",
            "outputs": [
                {
                    "internalType": "bytes32",
                    "name": "",
                    "type": "bytes32"
                }
            ],
            "stateMutability": "view",
            "type": "function"
        },
        {
            "inputs": [
                {
                    "internalType": "string",
                    "name": "_newData",
                    "type": "string"
                }
            ],
            "name": "setStorage",
            "outputs": [],
            "stateMutability": "nonpayable",
            "type": "function"
        },
        {
            "inputs": [
                {
                    "internalType": "address",
                    "name": "_trustedForwarder",
                    "type": "address"
                }
            ],
            "name": "setTrustForwarder",
            "outputs": [],
            "stateMutability": "nonpayable",
            "type": "function"
        },
        {
            "inputs": [],
            "name": "trustedForwarder",
            "outputs": [
                {
                    "internalType": "address",
                    "name": "",
                    "type": "address"
                }
            ],
            "stateMutability": "view",
            "type": "function"
        },
        {
            "inputs": [
                {
                    "internalType": "string",
                    "name": "_email",
                    "type": "string"
                },
                {
                    "internalType": "address",
                    "name": "_accountAddress",
                    "type": "address"
                }
            ],
            "name": "verifyEmailProfile",
            "outputs": [
                {
                    "internalType": "bool",
                    "name": "",
                    "type": "bool"
                }
            ],
            "stateMutability": "view",
            "type": "function"
        },
        {
            "inputs": [],
            "name": "versionRecipient",
            "outputs": [
                {
                    "internalType": "string",
                    "name": "",
                    "type": "string"
                }
            ],
            "stateMutability": "pure",
            "type": "function"
        }
    ],
    "bytecode": "0x610120604052737a1bac17ccc5b313516c5e16fb24f7659aa5ebed600260006101000a81548173ffffffffffffffffffffffffffffffffffffffff021916908373ffffffffffffffffffffffffffffffffffffffff16021790555073326c977e6efc84e512bb9c30f76e30c160ed06fb600360006101000a81548173ffffffffffffffffffffffffffffffffffffffff021916908373ffffffffffffffffffffffffffffffffffffffff1602179055507f4b09e658ed251bcafeebbc69400383d49f344ace09b9576fe248bb02c003fe9f60001b600455620186a0600560006101000a81548163ffffffff021916908363ffffffff160217905550610138600560046101000a81548167ffffffffffffffff021916908367ffffffffffffffff16021790555061016d600d553480156200013857600080fd5b5060405162001c3e38038062001c3e83398181016040528101906200015e91906200032e565b600260009054906101000a900473ffffffffffffffffffffffffffffffffffffffff168073ffffffffffffffffffffffffffffffffffffffff1660808173ffffffffffffffffffffffffffffffffffffffff1660601b8152505050620001ca81620002d460201b60201c565b600260009054906101000a900473ffffffffffffffffffffffffffffffffffffffff1673ffffffffffffffffffffffffffffffffffffffff1660a08173ffffffffffffffffffffffffffffffffffffffff1660601b8152505060045460e08181525050600560049054906101000a900467ffffffffffffffff1667ffffffffffffffff1660c08167ffffffffffffffff1660c01b81525050600560009054906101000a900463ffffffff1663ffffffff166101008163ffffffff1660e01b8152505033600760006101000a81548173ffffffffffffffffffffffffffffffffffffffff021916908373ffffffffffffffffffffffffffffffffffffffff16021790555050620003b3565b806000806101000a81548173ffffffffffffffffffffffffffffffffffffffff021916908373ffffffffffffffffffffffffffffffffffffffff16021790555050565b600081519050620003288162000399565b92915050565b60006020828403121562000347576200034662000394565b5b6000620003578482850162000317565b91505092915050565b60006200036d8262000374565b9050919050565b600073ffffffffffffffffffffffffffffffffffffffff82169050919050565b600080fd5b620003a48162000360565b8114620003b057600080fd5b50565b60805160601c60a05160601c60c05160c01c60e0516101005160e01c6118336200040b60003960006106a20152600061065e0152600061067f01526000610622015260008181610317015261036b01526118336000f3fe608060405234801561001057600080fd5b50600436106100f55760003560e01c80636f5d401311610097578063a57b0b0b11610066578063a57b0b0b1461028b578063cc7653db146102a7578063ddf0b3da146102db578063e1f87d9c146102f7576100f5565b80636f5d4013146102055780637da0a87714610221578063914fca461461023f578063a4a4e1981461025b576100f5565b806334564b9b116100d357806334564b9b1461016557806344476a8614610183578063486ff0cd146101b7578063572b6c05146101d5576100f5565b80631fe543e3146100fa5780632ee56705146101165780633408f73a14610146575b600080fd5b610114600480360381019061010f91906110a2565b610315565b005b610130600480360381019061012b9190610fec565b6103d5565b60405161013d9190611272565b60405180910390f35b61014e610462565b60405161015c929190611370565b60405180910390f35b61016d61051f565b60405161017a91906113c0565b60405180910390f35b61019d60048036038101906101989190610f49565b610525565b6040516101ae9594939291906112a8565b60405180910390f35b6101bf610588565b6040516101cc919061134e565b60405180910390f35b6101ef60048036038101906101ea9190610f49565b6105c5565b6040516101fc9190611272565b60405180910390f35b61021f600480360381019061021a9190610fa3565b61061e565b005b610229610896565b604051610236919061122e565b60405180910390f35b610259600480360381019061025491906110fe565b6108bf565b005b61027560048036038101906102709190611048565b610b20565b604051610282919061128d565b60405180910390f35b6102a560048036038101906102a09190610fa3565b610b38565b005b6102c160048036038101906102bc9190610f76565b610b52565b6040516102d29594939291906112a8565b60405180910390f35b6102f560048036038101906102f09190610f49565b610bb5565b005b6102ff610c1b565b60405161030c91906113c0565b60405180910390f35b7f000000000000000000000000000000000000000000000000000000000000000073ffffffffffffffffffffffffffffffffffffffff163373ffffffffffffffffffffffffffffffffffffffff16146103c757337f00000000000000000000000000000000000000000000000000000000000000006040517f1cf993f40000000000000000000000000000000000000000000000000000000081526004016103be929190611249565b60405180910390fd5b6103d18282610c21565b5050565b600080600090506000848051906020012090508373ffffffffffffffffffffffffffffffffffffffff16600a600083815260200190815260200160002060010160009054906101000a900473ffffffffffffffffffffffffffffffffffffffff1673ffffffffffffffffffffffffffffffffffffffff16141561045757600191505b819250505092915050565b606060006001600760009054906101000a900473ffffffffffffffffffffffffffffffffffffffff16818054610497906115ba565b80601f01602080910402602001604051908101604052809291908181526020018280546104c3906115ba565b80156105105780601f106104e557610100808354040283529160200191610510565b820191906000526020600020905b8154815290600101906020018083116104f357829003601f168201915b50505050509150915091509091565b600b5481565b60096020528060005260406000206000915090508060000154908060010160009054906101000a900473ffffffffffffffffffffffffffffffffffffffff16908060020154908060030160009054906101000a900460ff16908060040154905085565b60606040518060400160405280600181526020017f3100000000000000000000000000000000000000000000000000000000000000815250905090565b60008060009054906101000a900473ffffffffffffffffffffffffffffffffffffffff1673ffffffffffffffffffffffffffffffffffffffff168273ffffffffffffffffffffffffffffffffffffffff16149050919050565b60007f000000000000000000000000000000000000000000000000000000000000000073ffffffffffffffffffffffffffffffffffffffff16635d3b1d307f00000000000000000000000000000000000000000000000000000000000000007f000000000000000000000000000000000000000000000000000000000000000060037f000000000000000000000000000000000000000000000000000000000000000060016040518663ffffffff1660e01b81526004016106e39594939291906112fb565b602060405180830381600087803b1580156106fd57600080fd5b505af1158015610711573d6000803e3d6000fd5b505050506040513d601f19601f820116820180604052508101906107359190611075565b9050600082805190602001209050817f776f46bd14481bd474770ae18d927eca8ec27597202d9333bcad6e8482a36b1084604051610773919061134e565b60405180910390a26040518060a00160405280828152602001600073ffffffffffffffffffffffffffffffffffffffff16815260200160008152602001600060028111156107c4576107c3611695565b5b81526020016000815250600a60008381526020019081526020016000206000820151816000015560208201518160010160006101000a81548173ffffffffffffffffffffffffffffffffffffffff021916908373ffffffffffffffffffffffffffffffffffffffff1602179055506040820151816002015560608201518160030160006101000a81548160ff0219169083600281111561086757610866611695565b5b021790555060808201518160040155905050806008600084815260200190815260200160002081905550505050565b60008060009054906101000a900473ffffffffffffffffffffffffffffffffffffffff16905090565b60008180519060200120905082600a60008381526020019081526020016000206002015414610923576040517f08c379a000000000000000000000000000000000000000000000000000000000815260040161091a906113a0565b60405180910390fd5b600061092d610cca565b905080600a600084815260200190815260200160002060010160006101000a81548173ffffffffffffffffffffffffffffffffffffffff021916908373ffffffffffffffffffffffffffffffffffffffff1602179055506001600a600084815260200190815260200160002060030160006101000a81548160ff021916908360028111156109be576109bd611695565b5b0217905550600d54426109d19190611479565b600a600084815260200190815260200160002060040181905550600a6000838152602001908152602001600020600960008373ffffffffffffffffffffffffffffffffffffffff1673ffffffffffffffffffffffffffffffffffffffff168152602001908152602001600020600082015481600001556001820160009054906101000a900473ffffffffffffffffffffffffffffffffffffffff168160010160006101000a81548173ffffffffffffffffffffffffffffffffffffffff021916908373ffffffffffffffffffffffffffffffffffffffff160217905550600282015481600201556003820160009054906101000a900460ff168160030160006101000a81548160ff02191690836002811115610af057610aef611695565b5b021790555060048201548160040155905050600c6000815480929190610b159061161d565b919050555050505050565b60086020528060005260406000206000915090505481565b8060019080519060200190610b4e929190610d44565b5050565b600a6020528060005260406000206000915090508060000154908060010160009054906101000a900473ffffffffffffffffffffffffffffffffffffffff16908060020154908060030160009054906101000a900460ff16908060040154905085565b600760009054906101000a900473ffffffffffffffffffffffffffffffffffffffff1673ffffffffffffffffffffffffffffffffffffffff163373ffffffffffffffffffffffffffffffffffffffff1614610c0f57600080fd5b610c1881610d01565b50565b600c5481565b600081600081518110610c3757610c366116f3565b5b6020026020010151905060006008600085815260200190815260200160002054905081600a600083815260200190815260200160002060020181905550600b6000815480929190610c879061161d565b9190505550817f46032dbc001d64bc02bb481caec9bcdb9e631e322518754a33171e399aac0ef882604051610cbc919061128d565b60405180910390a250505050565b60006014600036905010158015610ce65750610ce5336105c5565b5b15610cfa57601436033560601c9050610cfe565b3390505b90565b806000806101000a81548173ffffffffffffffffffffffffffffffffffffffff021916908373ffffffffffffffffffffffffffffffffffffffff16021790555050565b828054610d50906115ba565b90600052602060002090601f016020900481019282610d725760008555610db9565b82601f10610d8b57805160ff1916838001178555610db9565b82800160010185558215610db9579182015b82811115610db8578251825591602001919060010190610d9d565b5b509050610dc69190610dca565b5090565b5b80821115610de3576000816000905550600101610dcb565b5090565b6000610dfa610df584611400565b6113db565b90508083825260208201905082856020860282011115610e1d57610e1c611756565b5b60005b85811015610e4d5781610e338882610f1f565b845260208401935060208301925050600181019050610e20565b5050509392505050565b6000610e6a610e658461142c565b6113db565b905082815260208101848484011115610e8657610e8561175b565b5b610e91848285611578565b509392505050565b600081359050610ea8816117b8565b92915050565b600082601f830112610ec357610ec2611751565b5b8135610ed3848260208601610de7565b91505092915050565b600081359050610eeb816117cf565b92915050565b600082601f830112610f0657610f05611751565b5b8135610f16848260208601610e57565b91505092915050565b600081359050610f2e816117e6565b92915050565b600081519050610f43816117e6565b92915050565b600060208284031215610f5f57610f5e611765565b5b6000610f6d84828501610e99565b91505092915050565b600060208284031215610f8c57610f8b611765565b5b6000610f9a84828501610edc565b91505092915050565b600060208284031215610fb957610fb8611765565b5b600082013567ffffffffffffffff811115610fd757610fd6611760565b5b610fe384828501610ef1565b91505092915050565b6000806040838503121561100357611002611765565b5b600083013567ffffffffffffffff81111561102157611020611760565b5b61102d85828601610ef1565b925050602061103e85828601610e99565b9150509250929050565b60006020828403121561105e5761105d611765565b5b600061106c84828501610f1f565b91505092915050565b60006020828403121561108b5761108a611765565b5b600061109984828501610f34565b91505092915050565b600080604083850312156110b9576110b8611765565b5b60006110c785828601610f1f565b925050602083013567ffffffffffffffff8111156110e8576110e7611760565b5b6110f485828601610eae565b9150509250929050565b6000806040838503121561111557611114611765565b5b600061112385828601610f1f565b925050602083013567ffffffffffffffff81111561114457611143611760565b5b61115085828601610ef1565b9150509250929050565b611163816114cf565b82525050565b611172816114e1565b82525050565b611181816114ed565b82525050565b61119081611566565b82525050565b60006111a18261145d565b6111ab8185611468565b93506111bb818560208601611587565b6111c48161176a565b840191505092915050565b60006111dc601183611468565b91506111e78261177b565b602082019050919050565b6111fb8161150a565b82525050565b61120a81611538565b82525050565b61121981611542565b82525050565b61122881611552565b82525050565b6000602082019050611243600083018461115a565b92915050565b600060408201905061125e600083018561115a565b61126b602083018461115a565b9392505050565b60006020820190506112876000830184611169565b92915050565b60006020820190506112a26000830184611178565b92915050565b600060a0820190506112bd6000830188611178565b6112ca602083018761115a565b6112d76040830186611201565b6112e46060830185611187565b6112f16080830184611201565b9695505050505050565b600060a0820190506113106000830188611178565b61131d602083018761121f565b61132a60408301866111f2565b6113376060830185611210565b6113446080830184611210565b9695505050505050565b600060208201905081810360008301526113688184611196565b905092915050565b6000604082019050818103600083015261138a8185611196565b9050611399602083018461115a565b9392505050565b600060208201905081810360008301526113b9816111cf565b9050919050565b60006020820190506113d56000830184611201565b92915050565b60006113e56113f6565b90506113f182826115ec565b919050565b6000604051905090565b600067ffffffffffffffff82111561141b5761141a611722565b5b602082029050602081019050919050565b600067ffffffffffffffff82111561144757611446611722565b5b6114508261176a565b9050602081019050919050565b600081519050919050565b600082825260208201905092915050565b600061148482611538565b915061148f83611538565b9250827fffffffffffffffffffffffffffffffffffffffffffffffffffffffffffffffff038211156114c4576114c3611666565b5b828201905092915050565b60006114da82611518565b9050919050565b60008115159050919050565b6000819050919050565b6000819050611505826117a4565b919050565b600061ffff82169050919050565b600073ffffffffffffffffffffffffffffffffffffffff82169050919050565b6000819050919050565b600063ffffffff82169050919050565b600067ffffffffffffffff82169050919050565b6000611571826114f7565b9050919050565b82818337600083830152505050565b60005b838110156115a557808201518184015260208101905061158a565b838111156115b4576000848401525b50505050565b600060028204905060018216806115d257607f821691505b602082108114156115e6576115e56116c4565b5b50919050565b6115f58261176a565b810181811067ffffffffffffffff8211171561161457611613611722565b5b80604052505050565b600061162882611538565b91507fffffffffffffffffffffffffffffffffffffffffffffffffffffffffffffffff82141561165b5761165a611666565b5b600182019050919050565b7f4e487b7100000000000000000000000000000000000000000000000000000000600052601160045260246000fd5b7f4e487b7100000000000000000000000000000000000000000000000000000000600052602160045260246000fd5b7f4e487b7100000000000000000000000000000000000000000000000000000000600052602260045260246000fd5b7f4e487b7100000000000000000000000000000000000000000000000000000000600052603260045260246000fd5b7f4e487b7100000000000000000000000000000000000000000000000000000000600052604160045260246000fd5b600080fd5b600080fd5b600080fd5b600080fd5b600080fd5b6000601f19601f8301169050919050565b7f57726f6e67204c6963656e7365204b6579000000000000000000000000000000600082015250565b600381106117b5576117b4611695565b5b50565b6117c1816114cf565b81146117cc57600080fd5b50565b6117d8816114ed565b81146117e357600080fd5b50565b6117ef81611538565b81146117fa57600080fd5b5056fea2646970667358221220d996fcd6126193c706dee28263437d345decf91cf6e578302c25cd5b48cafe5164736f6c63430008070033",
    "linkReferences": {},
    "deployedLinkReferences": {}
}