{
  "_format": "hh-sol-artifact-1",
  "contractName": "Ethablish",
  "sourceName": "contracts/Ethablish.sol",
  "abi": [
    {
      "inputs": [
        {
          "internalType": "address",
          "name": "",
          "type": "address"
        }
      ],
      "name": "accountToEmailProfile",
      "outputs": [
        {
          "internalType": "string",
          "name": "email",
          "type": "string"
        },
        {
          "internalType": "address",
          "name": "accountAddress",
          "type": "address"
        },
        {
          "internalType": "bool",
          "name": "isOpen",
          "type": "bool"
        },
        {
          "internalType": "bytes32",
          "name": "pubKey",
          "type": "bytes32"
        }
      ],
      "stateMutability": "view",
      "type": "function"
    },
    {
      "inputs": [
        {
          "internalType": "string",
          "name": "_email",
          "type": "string"
        },
        {
          "internalType": "bool",
          "name": "_isOpen",
          "type": "bool"
        },
        {
          "internalType": "bytes32",
          "name": "_pubKey",
          "type": "bytes32"
        }
      ],
      "name": "createEmailProfile",
      "outputs": [],
      "stateMutability": "payable",
      "type": "function"
    },
    {
      "inputs": [],
      "name": "getMyEmailProfile",
      "outputs": [
        {
          "components": [
            {
              "internalType": "string",
              "name": "email",
              "type": "string"
            },
            {
              "internalType": "address",
              "name": "accountAddress",
              "type": "address"
            },
            {
              "internalType": "bool",
              "name": "isOpen",
              "type": "bool"
            },
            {
              "internalType": "bytes32",
              "name": "pubKey",
              "type": "bytes32"
            }
          ],
          "internalType": "struct Ethablish.EmailProfile",
          "name": "",
          "type": "tuple"
        }
      ],
      "stateMutability": "view",
      "type": "function"
    },
    {
      "inputs": [
        {
          "internalType": "uint256",
          "name": "",
          "type": "uint256"
        }
      ],
      "name": "profileAccts",
      "outputs": [
        {
          "internalType": "address",
          "name": "",
          "type": "address"
        }
      ],
      "stateMutability": "view",
      "type": "function"
    },
    {
      "inputs": [
        {
          "internalType": "string",
          "name": "_email",
          "type": "string"
        },
        {
          "internalType": "address",
          "name": "_accountAddress",
          "type": "address"
        },
        {
          "internalType": "bytes32",
          "name": "_pubKey",
          "type": "bytes32"
        }
      ],
      "name": "verifyEmailProfile",
      "outputs": [
        {
          "internalType": "bool",
          "name": "",
          "type": "bool"
        }
      ],
      "stateMutability": "view",
      "type": "function"
    }
  ],
  "bytecode": "0x608060405234801561001057600080fd5b50610de3806100206000396000f3fe60806040526004361061004a5760003560e01c806344476a861461004f578063619412531461008f5780636e835e22146100cc57806384ca561e14610109578063a9b0a82814610125575b600080fd5b34801561005b57600080fd5b5061007660048036038101906100719190610875565b610150565b6040516100869493929190610afa565b60405180910390f35b34801561009b57600080fd5b506100b660048036038101906100b1919061089e565b610235565b6040516100c39190610adf565b60405180910390f35b3480156100d857600080fd5b506100f360048036038101906100ee919061096c565b6103c1565b6040516101009190610ac4565b60405180910390f35b610123600480360381019061011e9190610905565b610400565b005b34801561013157600080fd5b5061013a610570565b6040516101479190610b46565b60405180910390f35b600060205280600052604060002060009150905080600001805461017390610c7f565b80601f016020809104026020016040519081016040528092919081815260200182805461019f90610c7f565b80156101ec5780601f106101c1576101008083540402835291602001916101ec565b820191906000526020600020905b8154815290600101906020018083116101cf57829003601f168201915b5050505050908060010160009054906101000a900473ffffffffffffffffffffffffffffffffffffffff16908060010160149054906101000a900460ff16908060020154905084565b6000806000905060008060008673ffffffffffffffffffffffffffffffffffffffff1673ffffffffffffffffffffffffffffffffffffffff16815260200190815260200160002060405180608001604052908160008201805461029790610c7f565b80601f01602080910402602001604051908101604052809291908181526020018280546102c390610c7f565b80156103105780601f106102e557610100808354040283529160200191610310565b820191906000526020600020905b8154815290600101906020018083116102f357829003601f168201915b505050505081526020016001820160009054906101000a900473ffffffffffffffffffffffffffffffffffffffff1673ffffffffffffffffffffffffffffffffffffffff1673ffffffffffffffffffffffffffffffffffffffff1681526020016001820160149054906101000a900460ff161515151581526020016002820154815250509050858051906020012081600001518051906020012014156103b557600191505b81925050509392505050565b600181815481106103d157600080fd5b906000526020600020016000915054906101000a900473ffffffffffffffffffffffffffffffffffffffff1681565b60405180608001604052808481526020013373ffffffffffffffffffffffffffffffffffffffff1681526020018315158152602001828152506000803373ffffffffffffffffffffffffffffffffffffffff1673ffffffffffffffffffffffffffffffffffffffff16815260200190815260200160002060008201518160000190805190602001906104939291906106d3565b5060208201518160010160006101000a81548173ffffffffffffffffffffffffffffffffffffffff021916908373ffffffffffffffffffffffffffffffffffffffff16021790555060408201518160010160146101000a81548160ff021916908315150217905550606082015181600201559050506001339080600181540180825580915050600190039060005260206000200160009091909190916101000a81548173ffffffffffffffffffffffffffffffffffffffff021916908373ffffffffffffffffffffffffffffffffffffffff160217905550505050565b610578610759565b6000803373ffffffffffffffffffffffffffffffffffffffff1673ffffffffffffffffffffffffffffffffffffffff1681526020019081526020016000206040518060800160405290816000820180546105d190610c7f565b80601f01602080910402602001604051908101604052809291908181526020018280546105fd90610c7f565b801561064a5780601f1061061f5761010080835404028352916020019161064a565b820191906000526020600020905b81548152906001019060200180831161062d57829003601f168201915b505050505081526020016001820160009054906101000a900473ffffffffffffffffffffffffffffffffffffffff1673ffffffffffffffffffffffffffffffffffffffff1673ffffffffffffffffffffffffffffffffffffffff1681526020016001820160149054906101000a900460ff16151515158152602001600282015481525050905090565b8280546106df90610c7f565b90600052602060002090601f0160209004810192826107015760008555610748565b82601f1061071a57805160ff1916838001178555610748565b82800160010185558215610748579182015b8281111561074757825182559160200191906001019061072c565b5b509050610755919061079c565b5090565b604051806080016040528060608152602001600073ffffffffffffffffffffffffffffffffffffffff168152602001600015158152602001600080191681525090565b5b808211156107b557600081600090555060010161079d565b5090565b60006107cc6107c784610b8d565b610b68565b9050828152602081018484840111156107e457600080fd5b6107ef848285610c3d565b509392505050565b60008135905061080681610d51565b92915050565b60008135905061081b81610d68565b92915050565b60008135905061083081610d7f565b92915050565b600082601f83011261084757600080fd5b81356108578482602086016107b9565b91505092915050565b60008135905061086f81610d96565b92915050565b60006020828403121561088757600080fd5b6000610895848285016107f7565b91505092915050565b6000806000606084860312156108b357600080fd5b600084013567ffffffffffffffff8111156108cd57600080fd5b6108d986828701610836565b93505060206108ea868287016107f7565b92505060406108fb86828701610821565b9150509250925092565b60008060006060848603121561091a57600080fd5b600084013567ffffffffffffffff81111561093457600080fd5b61094086828701610836565b93505060206109518682870161080c565b925050604061096286828701610821565b9150509250925092565b60006020828403121561097e57600080fd5b600061098c84828501610860565b91505092915050565b61099e81610beb565b82525050565b6109ad81610beb565b82525050565b6109bc81610bfd565b82525050565b6109cb81610bfd565b82525050565b6109da81610c09565b82525050565b6109e981610c09565b82525050565b60006109fa82610bbe565b610a048185610bc9565b9350610a14818560208601610c4c565b610a1d81610d40565b840191505092915050565b6000610a3382610bbe565b610a3d8185610bda565b9350610a4d818560208601610c4c565b610a5681610d40565b840191505092915050565b60006080830160008301518482036000860152610a7e82826109ef565b9150506020830151610a936020860182610995565b506040830151610aa660408601826109b3565b506060830151610ab960608601826109d1565b508091505092915050565b6000602082019050610ad960008301846109a4565b92915050565b6000602082019050610af460008301846109c2565b92915050565b60006080820190508181036000830152610b148187610a28565b9050610b2360208301866109a4565b610b3060408301856109c2565b610b3d60608301846109e0565b95945050505050565b60006020820190508181036000830152610b608184610a61565b905092915050565b6000610b72610b83565b9050610b7e8282610cb1565b919050565b6000604051905090565b600067ffffffffffffffff821115610ba857610ba7610d11565b5b610bb182610d40565b9050602081019050919050565b600081519050919050565b600082825260208201905092915050565b600082825260208201905092915050565b6000610bf682610c13565b9050919050565b60008115159050919050565b6000819050919050565b600073ffffffffffffffffffffffffffffffffffffffff82169050919050565b6000819050919050565b82818337600083830152505050565b60005b83811015610c6a578082015181840152602081019050610c4f565b83811115610c79576000848401525b50505050565b60006002820490506001821680610c9757607f821691505b60208210811415610cab57610caa610ce2565b5b50919050565b610cba82610d40565b810181811067ffffffffffffffff82111715610cd957610cd8610d11565b5b80604052505050565b7f4e487b7100000000000000000000000000000000000000000000000000000000600052602260045260246000fd5b7f4e487b7100000000000000000000000000000000000000000000000000000000600052604160045260246000fd5b6000601f19601f8301169050919050565b610d5a81610beb565b8114610d6557600080fd5b50565b610d7181610bfd565b8114610d7c57600080fd5b50565b610d8881610c09565b8114610d9357600080fd5b50565b610d9f81610c33565b8114610daa57600080fd5b5056fea26469706673582212208fa31f4108acde6272e1733ad6be671c22d94ff3e2c95a08e1e25c51bc19b2c764736f6c63430008040033",
  "linkReferences": {},
  "deployedLinkReferences": {}
}