{
  "_format": "hh-sol-artifact-1",
  "contractName": "Ethablish",
  "sourceName": "contracts/Ethablish.sol",
  "abi": [
    {
      "inputs": [
        {
          "internalType": "address",
          "name": "",
          "type": "address"
        }
      ],
      "name": "accountToEmailProfile",
      "outputs": [
        {
          "internalType": "string",
          "name": "emailHash",
          "type": "string"
        },
        {
          "internalType": "address",
          "name": "accountAddress",
          "type": "address"
        },
        {
          "internalType": "uint256",
          "name": "expiryTime",
          "type": "uint256"
        }
      ],
      "stateMutability": "view",
      "type": "function"
    },
    {
      "inputs": [
        {
          "internalType": "string",
          "name": "_emailHash",
          "type": "string"
        }
      ],
      "name": "createEmailProfile",
      "outputs": [],
      "stateMutability": "payable",
      "type": "function"
    },
    {
      "inputs": [
        {
          "internalType": "string",
          "name": "",
          "type": "string"
        }
      ],
      "name": "emailToEmailProfile",
      "outputs": [
        {
          "internalType": "string",
          "name": "emailHash",
          "type": "string"
        },
        {
          "internalType": "address",
          "name": "accountAddress",
          "type": "address"
        },
        {
          "internalType": "uint256",
          "name": "expiryTime",
          "type": "uint256"
        }
      ],
      "stateMutability": "view",
      "type": "function"
    },
    {
      "inputs": [
        {
          "internalType": "string",
          "name": "_email",
          "type": "string"
        },
        {
          "internalType": "address",
          "name": "_accountAddress",
          "type": "address"
        },
        {
          "internalType": "bytes32",
          "name": "_pubKey",
          "type": "bytes32"
        }
      ],
      "name": "verifyEmailProfile",
      "outputs": [
        {
          "internalType": "bool",
          "name": "",
          "type": "bool"
        }
      ],
      "stateMutability": "view",
      "type": "function"
    }
  ],
  "bytecode": "0x608060405261016d60005534801561001657600080fd5b50610c3f806100266000396000f3fe60806040526004361061003f5760003560e01c80630d605e9a1461004457806344476a861461008357806361941253146100c2578063c768140c146100ff575b600080fd5b34801561005057600080fd5b5061006b6004803603810190610066919061077b565b61011b565b60405161007a939291906108ec565b60405180910390f35b34801561008f57600080fd5b506100aa60048036038101906100a59190610752565b610203565b6040516100b9939291906108ec565b60405180910390f35b3480156100ce57600080fd5b506100e960048036038101906100e491906107bc565b6102d5565b6040516100f691906108d1565b60405180910390f35b6101196004803603810190610114919061077b565b610447565b005b60028180516020810182018051848252602083016020850120818352809550505050505060009150905080600001805461015490610a91565b80601f016020809104026020016040519081016040528092919081815260200182805461018090610a91565b80156101cd5780601f106101a2576101008083540402835291602001916101cd565b820191906000526020600020905b8154815290600101906020018083116101b057829003601f168201915b5050505050908060010160009054906101000a900473ffffffffffffffffffffffffffffffffffffffff16908060020154905083565b600160205280600052604060002060009150905080600001805461022690610a91565b80601f016020809104026020016040519081016040528092919081815260200182805461025290610a91565b801561029f5780601f106102745761010080835404028352916020019161029f565b820191906000526020600020905b81548152906001019060200180831161028257829003601f168201915b5050505050908060010160009054906101000a900473ffffffffffffffffffffffffffffffffffffffff16908060020154905083565b600080600090506000600160008673ffffffffffffffffffffffffffffffffffffffff1673ffffffffffffffffffffffffffffffffffffffff16815260200190815260200160002060405180606001604052908160008201805461033890610a91565b80601f016020809104026020016040519081016040528092919081815260200182805461036490610a91565b80156103b15780601f10610386576101008083540402835291602001916103b1565b820191906000526020600020905b81548152906001019060200180831161039457829003601f168201915b505050505081526020016001820160009054906101000a900473ffffffffffffffffffffffffffffffffffffffff1673ffffffffffffffffffffffffffffffffffffffff1673ffffffffffffffffffffffffffffffffffffffff16815260200160028201548152505090508580519060200120816000015180519060200120141561043b57600191505b81925050509392505050565b60405180606001604052808281526020013373ffffffffffffffffffffffffffffffffffffffff1681526020016000544261048291906109a7565b815250600160003373ffffffffffffffffffffffffffffffffffffffff1673ffffffffffffffffffffffffffffffffffffffff16815260200190815260200160002060008201518160000190805190602001906104e092919061061d565b5060208201518160010160006101000a81548173ffffffffffffffffffffffffffffffffffffffff021916908373ffffffffffffffffffffffffffffffffffffffff1602179055506040820151816002015590505060405180606001604052808281526020013373ffffffffffffffffffffffffffffffffffffffff1681526020016000544261057091906109a7565b81525060028260405161058391906108ba565b908152602001604051809103902060008201518160000190805190602001906105ad92919061061d565b5060208201518160010160006101000a81548173ffffffffffffffffffffffffffffffffffffffff021916908373ffffffffffffffffffffffffffffffffffffffff160217905550604082015181600201559050506003600081548092919061061590610af4565b919050555050565b82805461062990610a91565b90600052602060002090601f01602090048101928261064b5760008555610692565b82601f1061066457805160ff1916838001178555610692565b82800160010185558215610692579182015b82811115610691578251825591602001919060010190610676565b5b50905061069f91906106a3565b5090565b5b808211156106bc5760008160009055506001016106a4565b5090565b60006106d36106ce8461094f565b61092a565b9050828152602081018484840111156106eb57600080fd5b6106f6848285610a4f565b509392505050565b60008135905061070d81610bdb565b92915050565b60008135905061072281610bf2565b92915050565b600082601f83011261073957600080fd5b81356107498482602086016106c0565b91505092915050565b60006020828403121561076457600080fd5b6000610772848285016106fe565b91505092915050565b60006020828403121561078d57600080fd5b600082013567ffffffffffffffff8111156107a757600080fd5b6107b384828501610728565b91505092915050565b6000806000606084860312156107d157600080fd5b600084013567ffffffffffffffff8111156107eb57600080fd5b6107f786828701610728565b9350506020610808868287016106fe565b925050604061081986828701610713565b9150509250925092565b61082c816109fd565b82525050565b61083b81610a0f565b82525050565b600061084c82610980565b610856818561098b565b9350610866818560208601610a5e565b61086f81610bca565b840191505092915050565b600061088582610980565b61088f818561099c565b935061089f818560208601610a5e565b80840191505092915050565b6108b481610a45565b82525050565b60006108c6828461087a565b915081905092915050565b60006020820190506108e66000830184610832565b92915050565b600060608201905081810360008301526109068186610841565b90506109156020830185610823565b61092260408301846108ab565b949350505050565b6000610934610945565b90506109408282610ac3565b919050565b6000604051905090565b600067ffffffffffffffff82111561096a57610969610b9b565b5b61097382610bca565b9050602081019050919050565b600081519050919050565b600082825260208201905092915050565b600081905092915050565b60006109b282610a45565b91506109bd83610a45565b9250827fffffffffffffffffffffffffffffffffffffffffffffffffffffffffffffffff038211156109f2576109f1610b3d565b5b828201905092915050565b6000610a0882610a25565b9050919050565b60008115159050919050565b6000819050919050565b600073ffffffffffffffffffffffffffffffffffffffff82169050919050565b6000819050919050565b82818337600083830152505050565b60005b83811015610a7c578082015181840152602081019050610a61565b83811115610a8b576000848401525b50505050565b60006002820490506001821680610aa957607f821691505b60208210811415610abd57610abc610b6c565b5b50919050565b610acc82610bca565b810181811067ffffffffffffffff82111715610aeb57610aea610b9b565b5b80604052505050565b6000610aff82610a45565b91507fffffffffffffffffffffffffffffffffffffffffffffffffffffffffffffffff821415610b3257610b31610b3d565b5b600182019050919050565b7f4e487b7100000000000000000000000000000000000000000000000000000000600052601160045260246000fd5b7f4e487b7100000000000000000000000000000000000000000000000000000000600052602260045260246000fd5b7f4e487b7100000000000000000000000000000000000000000000000000000000600052604160045260246000fd5b6000601f19601f8301169050919050565b610be4816109fd565b8114610bef57600080fd5b50565b610bfb81610a1b565b8114610c0657600080fd5b5056fea26469706673582212204b104cb2edbd0f5f837f4700b1ae8ab5c297d8fb37d21f68aaae73b0c9b6fc1664736f6c63430008040033",
  "linkReferences": {},
  "deployedLinkReferences": {}
}